:020000040800F2
:10000000B009002029020008AB1F00088D1D000860
:10001000A91F0008490700087D250008000000000E
:10002000000000000000000000000000AF1F0008FA
:100030000908000800000000AD1F0008B11F0008FB
:10004000430200084302000843020008430200087C
:10005000430200084302000843020008430200086C
:10006000430200084302000843020008430200085C
:10007000430200084302000843020008430200084C
:100080004D07000859070008430200084302000812
:10009000430200084302000843020008430200082C
:1000A000430200084302000843020008430200081C
:1000B000430200084302000843020008430200080C
:1000C00043020008430200084302000843020008FC
:1000D0004302000865250008712500084302000856
:1000E00043020008430200084302000843020008DC
:1000F0004302000859200008430200084302000898
:1001000043020008430200084302000843020008BB
:1001100043020008430200084302000843020008AB
:10012000430200084302000843020008430200089B
:10013000430200084302000843020008430200088B
:10014000430200084302000843020008430200087B
:10015000430200084302000843020008430200086B
:10016000430200084302000843020008430200085B
:100170004302000843020008430200080000000098
:10018000430200084302000800F002F800F03CF8C7
:100190000AA090E8000C82448344AAF10107DA45E2
:1001A00001D100F031F8AFF2090EBAE80F0013F0F8
:1001B000010F18BFFB1A43F001031847D44F00008A
:1001C000F44F0000103A24BF78C878C1FAD852071B
:1001D00024BF30C830C144BF04680C6070470000C1
:1001E0000023002400250026103A28BF78C1FBD840
:1001F000520728BF30C148BF0B6070471FB504F0DD
:100200008EFE1FBD10B510BD00F014F91146FFF7AA
:10021000F5FF03F023FF00F032F903B4FFF7F2FF1C
:1002200003BC00F035F90000094880470948004741
:10023000FEE7FEE7FEE7FEE7FEE7FEE7FEE7FEE796
:10024000FEE7FEE704480549054A064B70470000F3
:100250004920000889010008B0030020B0090020EF
:10026000B0050020B005002053EA020C00F06980C0
:100270002DE9F04B4FF00006002B1FBFB3FA83F5BA
:1002800003FA05F424FA05F65E4012BF1643B2FAEB
:1002900082F502FA05F4C5F120051EBF22FA05FC1D
:1002A00044EA0C04203556EA044C4FEA144418BFC3
:1002B000641C4FF000084FF00009904271EB030CF2
:1002C00039D3002919BFB1FA81F701FA07F6B0FA5C
:1002D00080F700FA07F6C7F120071EBF20FA07FCD7
:1002E00046EA0C062037B6FBF4FCA7EB0507103FE7
:1002F00007F01F0BCBF120060CFA0BFB2CFA06F6CD
:1003000044BFB3460026202FA4BF5E464FF0000B2B
:100310005BEA060C08BF4FF0010B19EB0B09ABFBB6
:10032000027C48EB0608C01B06FB02CC0BFB03CC8F
:1003300071EB0C01C1E70B46024641464846BDE859
:10034000F08B13B54FF000004FF00001AFF30080C9
:10035000BDE81C40704710B5203AC0F00B80B1E8F2
:100360001850203AA0E81850B1E81850A0E81850EA
:10037000BFF4F5AF5FEA027C24BFB1E81850A0E8F3
:10038000185044BF18C918C0BDE810405FEA827C0D
:1003900024BF51F8043B40F8043B08BF7047D20724
:1003A00028BF31F8023B48BF11F8012B28BF20F8C5
:1003B000023B48BF00F8012B70474FF0000200B528
:1003C000134694469646203922BFA0E80C50A0E878
:1003D0000C50B1F12001BFF4F7AF090728BFA0E826
:1003E0000C5048BF0CC05DF804EB890028BF40F8F2
:1003F000042B08BF704748BF20F8022B11F0804F34
:1004000018BF00F8012B704770477047704710B550
:1004100000F008F8006810BD10B5044600F002F8BE
:10042000046010BD004870474C030020004870472E
:100430004C0300207546FFF7F9FFAE4605006946FC
:10044000534620F00700854618B020B5FFF7FAFEA6
:10045000BDE820404FF000064FF000074FF00008C5
:100460004FF0000B21F00701AC46ACE8C009ACE846
:10047000C009ACE8C009ACE8C0098D46704710B5AA
:100480000446AFF300802046BDE81040FFF7C5BE2C
:1004900001491820ABBEFEE72600020070470000AD
:1004A0002DE9F04103880F88BB423FD147884E8831
:1004B000B7423BD11688B34238D15688B74235D1BE
:1004C000466854684D6807FB03F80020B0EB980FAE
:1004D0001BD04FEA980047423068296804F0C7FCF7
:1004E00020607068696804F0C2FC6060B068A96848
:1004F00004F0BDFCA060F068E96804F0B8FCE060BE
:100500001034103510360137E6D118F003000BD047
:10051000474200BF56F8040B55F8041B04F0A7FC33
:1005200044F8040B0137F5D1002000E0FD2040B273
:10053000BDE8F08143604280018070472DE9F04FB3
:1005400091B047880B889F4240F0AF80068813889F
:100550009E4240F0AA804D8853889D4240F0A5807D
:1005600052684FF0000949684FEA850805960497DC
:10057000039502924268A9EB97000191079027F03A
:10058000030002EB80000C920990B8080B906843BE
:1005900001EB00102946009007F003000A9040424A
:1005A000069000BF029800EB890ADDE9000BCDF848
:1005B000209010900B980F91002847D0CDF838A0CC
:1005C000CDF834B0D946DDF81CA0DDF830B00024F9
:1005D0009BE8C100D9F80010DBF80C5004F050FC87
:1005E0000146204604F043FC59F808100446304602
:1005F00004F046FC0146204604F039FC09EB0806ED
:100600000446384656F8081004F03AFC01462046E5
:1006100004F02DFC46440446284656F8081004F021
:100620002FFC0146204604F022FC044606EB08009D
:100630000BF1100B1AF1010A00EB0809C8D1109D4B
:10064000DDE90896DDE90DBA03E000BF0C9E002449
:100650005D460A9868B1069F56F8040B296804F0B5
:100660000FFC0146204604F002FC044645440137D5
:10067000F2D110980F994AF8044B0BF1040B043097
:100680000139109096D10498099901EB80010991E4
:100690000C9901EB800105980C910399013889446C
:1006A00005907FF47FAF002000E0FD2040B211B044
:1006B000BDE8F08F2DE9F04103880F88BB423FD1A0
:1006C00047884E88B7423BD11688B34238D1568806
:1006D000B74235D1466854684D6807FB03F80020DF
:1006E000B0EB980F1BD04FEA98004742306829685A
:1006F00004F01FFC20607068696804F01AFC6060F8
:10070000B068A96804F015FCA060F068E96804F01E
:1007100010FCE0601034103510360137E6D118F0C7
:1007200003000BD0474200BF56F8040B55F8041BDA
:1007300004F0FFFB44F8040B0137F5D1002000E082
:10074000FD2040B2BDE8F081FEE70000014800F066
:10075000B9B80000A0010020014800F0B3B80000C3
:100760000002002001681823CAB2103AB2FBF3F26B
:10077000054B6FF30901032A9B5CC36500D9091D72
:100780008165084670470000444F000810B50146D7
:1007900000208B698A6A4FF0C07453B1B3F5005FD3
:1007A00015D072B1012A0CD0022A0AD0032A09D12D
:1007B00004E01AB1012A06D0022A03D1C96AC9018C
:1007C00000D5012010BDC96AA142FAD010BD002A8F
:1007D000F7D0012AF2D0022AF3D0032AF3D010BDB9
:1007E00030B50468256825F48025256004686360B9
:1007F0008368402B036803D099600068C26030BDF5
:100800009A600068C16030BD704772B6FEE72DE99E
:10081000F0410446876D00F0DFFA064694F8350093
:100820000025022806D08020606584F8345001201D
:10083000BDE8F0812068016821F0160101602068A0
:10084000416921F080014161206C08B9A06C20B1A0
:100850002068016821F0080101602068016821F02A
:10086000010101600CE000F0B7FA801B052807D9F0
:1008700020206065032084F8350084F83450D7E7E1
:1008800020680068C007EED194F85C103F208840D3
:10089000B860012084F8350084F834500020C7E7A0
:1008A00090F83510022903D080214165012070475E
:1008B000052180F835100068016821F00101016010
:1008C000002070472DE9F84304464FF00009CDF8A9
:1008D000009063484FF41651A56D0068B0FBF1F726
:1008E0002E6894F85C10082000FA01F131420FD014
:1008F00021680A6852070BD50A6822F004020A60D0
:1009000094F85C108840A860606D40F0010060655C
:1009100094F85C104FF0010808FA01F0304208D05A
:1009200021684969090604D5A860606D40F002009D
:10093000606594F85C1004208840304208D021683B
:100940000968890704D5A860606D40F004006065FF
:1009500094F85C1010208840304218D02168096853
:10096000090714D5A86020680168490304D5006808
:10097000000308D5A16C07E00168C90503D401682C
:1009800021F008010160216C09B12046884794F8E4
:100990005C1020208840304231D021680968C906A7
:1009A0002DD5A86094F8350005282068016806D088
:1009B000490347D5006800031DD4616C1CE021F099
:1009C000160101602068416921F080014161206CBD
:1009D00008B9A06C20B12068016821F0080101600D
:1009E00094F85C103F208840A86084F8358084F833
:1009F0003490216D1FE0E16B09B120468847606D9E
:100A000000282BD0606DC00714D0052084F8350075
:100A10002068016821F0010101600098401C0090ED
:100A2000B84203D820680068C007F6D184F8358042
:100A300084F83490E16C002910D001B02046BDE864
:100A4000F04308470168C905D5D4016821F01001B9
:100A5000016084F8358084F83490CCE7BDE8F883F1
:100A60000C0000202DE9F041044600F0B5F90646DF
:100A70005CB1022084F83500002584F834502068E9
:100A8000016821F0010101600DE00120BDE8F08165
:100A900000F0A2F9801B052805D9202060650320FD
:100AA00084F83500F2E720680068C007F0D12268BA
:100AB000116820480140D4E901031843D4E9033602
:100AC0003343184363691843A3691843E369184320
:100AD000236A18430843616A042903D1D4E90B133C
:100AE00019430843106020684069666A20F00701D6
:100AF00030460E43012704280CD1A06A0643E06A61
:100B000040B12046FFF742FE20B14020606584F8E6
:100B10003570BAE7206846612046FFF723FE94F857
:100B20005C203F2191408160656584F8357000202C
:100B3000ACE700003F8010F02DE9F0410446866DDF
:100B400090F83400002501280DD0012084F83400ED
:100B500094F835700020012F07D084F83400022566
:100B60002846BDE8F0810220FBE7022784F83570B3
:100B700060652046FFF734FE94F85C103F20884003
:100B8000B0602068016841F016010160206C20B15E
:100B90002068016841F0080101602068016841F0A7
:100BA00001010160DCE7000070B5044600F014F9B3
:100BB0000546601C02D004480078044400F00CF99B
:100BC000401BA042FAD370BD000000202DE9F84F71
:100BD000DFF8BCA10022012503264FF00F090AF11E
:100BE000040BAAF1040E00BF0B6805FA02F42340BF
:100BF000A34270D10F7907F00307012F01D0022F14
:100C000016D187684FEA420806FA08FC27EA0C0763
:100C1000D1F80CC00CFA08FC4CEA070CC0F808C06C
:100C20004768A7430C79C4F3001494403C434460E4
:100C30000C79E443A4070AD0C4684FEA420C06FAD0
:100C40000CF7BC438F6807FA0CF72743C7600C7991
:100C500004F00304022C12D1D40800EB840CDCF85D
:100C600020405707FF0E09FA07F824EA0804D1F8D4
:100C7000108008FA07F848EA0408CCF820800468D5
:100C80004FEA420C06FA0CF7BC430F7907F0030752
:100C900007FA0CF7274307604C6814F4403F70D004
:100CA0003C4C276847F480472760246822F00307FC
:100CB00004F480440094384C07EB040CDCF808483A
:100CC00097074FEA177809FA08F7BC43334FB84241
:100CD00002D1002724E054E0314FB84201D101276E
:100CE0001EE0304FB84201D1022719E02E4FB84222
:100CF00001D1032714E02D4FB84201D104270FE0A2
:100D00002B4FB84201D105270AE02A4FB84201D142
:100D1000062705E0284FB84201D1072700E0082741
:100D200007FA08F72743CCF80878DAF80040574666
:100D3000D1F804C09C435FEACC2C00D51C433C6036
:100D4000DBF800405F46D1F804C09C435FEA8C2C7E
:100D500000D51C433C60DEF800407746D1F804C063
:100D60009C435FEA8C3C00D51C433C60084F083F25
:100D70003C68D1F804C09C435FEACC3C00D51C43DE
:100D80003C60521C102AFFF42FAFBDE8F88F000022
:100D9000083C01404438024000300140000002405D
:100DA0000004024000080240000C02400010024013
:100DB0000014024000180240001C0240426921EA6F
:100DC00002030A4043EA0241816170470AB181612E
:100DD00070470904FBE70000014880687047000085
:100DE0000000002002488168027811448160704749
:100DF000000000200B4810B5016841F4007101604B
:100E0000016841F480610160016841F48071016012
:100E1000032000F06FF80F2000F006F800F024F82F
:100E2000002010BD003C024070B50D4D04464FF44B
:100E30007A712878B1FBF0F00A490968B1FBF0F04B
:100E400000F00AFB48B9102C07D200222146501EA0
:100E500000F030F800206C6070BD012070BD000013
:100E6000000000200C0000200A4808B5016841F489
:100E700080410160006800F4804000900548001F38
:100E8000016841F080510160006800F080500090DE
:100E900008BD000044380240002809DB00F01F02B2
:100EA000012191404009800000F1E020C0F80011CC
:100EB00070470000F0B40E4B1B680C46C3F30223CE
:100EC000C3F10705042D00D90425191D072901D2F6
:100ED000002300E0DB1E012606FA05F1491E214031
:100EE00099409E40761E16403143F0BC01F05FBB36
:100EF0000CED00E0064900F0070208684FF6FF031A
:100F0000184040EA0220034A10430860704700007E
:100F10000CED00E00000FA052DE9F0470E46050053
:100F200065D0DFF81481D8F80000F7B200F00700B0
:100F3000B04207D288F80070D8F8000000F007002F
:100F4000B04254D128683D4C810712D5400703D5E3
:100F5000206840F4E05020602878000703D520681E
:100F600040F4604020602068A96820F0F000084349
:100F700020602878C0072DD03049686808390128DA
:100F800012D0022813D0032811D00968890700293C
:100F90002DDA216821F0030101432160FFF71CFFD6
:100FA000814641F2883A0EE009688903EFE7096853
:100FB0008901ECE7FFF710FFA0EB0901514502D9C9
:100FC0000320BDE8F0872068696800F00C00B0EBF2
:100FD000810FEFD1D8F80010404601F00701B1426F
:100FE00007D90770006800F00700B04201D0012067
:100FF000E7E72878400705D52068E96820F4E05045
:10100000084320602878000706D52068296920F465
:10101000604040EAC100206000F038F82168084ACA
:10102000C1F30311515CC8400649086006480068D6
:10103000FFF7FAFE0020C4E7003C024008380240F7
:101040004C4F00080C000020040000200448054913
:1010500000680968044AC1F38221515CC8407047A6
:101060000C000020083802405C4F00080448054985
:1010700000680968044AC1F34231515CC8407047B6
:101080000C000020083802405C4F0008154810B5DD
:10109000006810F00C02144813D04110042A0FD03D
:1010A000082A0ED10F4C241F2268236802F03F0249
:1010B0005B0207D52068C0F38810A0FB010106E0A1
:1010C000084610BD2168C1F38811A1FB000100236F
:1010D000FFF7CAF82168C1F30141491C4900B0FB80
:1010E000F1F010BD083802400024F4002DE9F84F5B
:1010F00004006ED02078DFF84C93C007A9F10405F6
:101100004AD009F104000168C1F38101012908D026
:101110000068C0F3810002280AD1D9F8000040021B
:1011200006D52868800337D560680028E1D033E011
:101130006068B0F5803F10D0B0F5A02F286810D0BF
:1011400020F480302860286820F4802028606068BF
:10115000A8B1FFF741FE06460DE0286840F4803054
:10116000F4E740F480202860F7E700BFFFF734FE83
:10117000801B642873D828688003F7D50CE0FFF73C
:101180002BFE064605E000BFFFF726FE801B642805
:10119000F0D828688003F7D42078DFF8AC82800785
:1011A0004FF0000A3ED5A748001D016811F00C0F52
:1011B00008D00068C0F3810002280BD1D9F80000E4
:1011C000400207D42868800716D5E068012800D1BE
:1011D00012E033E1E068B8B10120C8F80000FFF781
:1011E000FBFD064605E000BFFFF7F6FD801B022869
:1011F000C0D828688007F7D52868216920F0F80052
:1012000040EAC10028600DE0C8F800A0FFF7E4FD47
:10121000064604E0FFF7E0FD801B02281FD828687F
:101220008007F7D42078000722D5864F8748616968
:10123000703771B101210160FFF7CEFD064604E071
:10124000FFF7CAFD801B022809D838688007F7D548
:101250000EE0C0F800A0FFF7BFFD064605E082E003
:10126000FFF7BAFD801B02287DD838688007F7D4C5
:101270002078400768D5DFF8CCB100270BF13C0B94
:10128000DBF80000C0000BD4DBF8001041F0805107
:10129000CBF80010DBF80000012700F08050009030
:1012A0006B4E3068C00510D4306840F480703060F8
:1012B000FFF792FD009005E0FFF78EFD0099401AC0
:1012C000022850D83068C005F6D55E4EA0686C364E
:1012D00001280FD00528306810D020F001003060C0
:1012E000306820F004003060A068B8B1FFF774FDEA
:1012F00000900FE0306840F00100F4E740F0040097
:101300003060F7E7FFF768FD0099411A41F2883035
:10131000814266D830688007F4D50EE0FFF75CFDA7
:10132000009007E0FFF758FD0099411A41F288301C
:10133000814256D830688007F4D42FB1DBF8001012
:1013400021F08051CBF80010A069C8B33D49091DB8
:101350000968C1F3810102294AD00228504607D00A
:10136000C8F8600000E03CE0FFF736FD04463BE0D3
:101370004746C8F86000FFF72FFD064605E000BFAE
:10138000FFF72AFD801B02282BD828688001F7D49C
:10139000D4E907010843A16A2E4A490802EB01413A
:1013A000626A41EA8211084394F82C1040EA016114
:1013B000C9F8001001203866FFF70EFD044606E06C
:1013C0003EE000BFFFF708FD001B022809D828688F
:1013D0008001F7D534E000BFFFF7FEFC001B0228B8
:1013E00002D90320BDE8F88F28688001F4D427E0F3
:1013F0000128F7D0D9F80000E26900F48001914299
:101400001CD1226A00F03F01914217D147F6C0710A
:10141000626A0140B1EB821F10D1A26A4FF0FF3324
:1014200000F4403103EB5202B1EB024F06D194F8C5
:101430002C1000F07060B0EB016F01D00120D1E7FB
:101440000020CFE70438024000004742800E4742A8
:10145000007000400000FFFF10B5401EB0F1807F1B
:1014600001D3012010BD4FF0E02460610F2160170F
:1014700001F09DF80020A06107202061002010BD30
:101480007047704710B5040003D094F83D0010B1C8
:1014900007E0012010BD002084F83C00204600F049
:1014A0001FF8022084F83D00211D206800F0DAFDBD
:1014B000012084F8460084F83E0084F83F0084F858
:1014C000400084F8410084F8420084F8430084F826
:1014D000440084F8450084F83D00002010BD000061
:1014E00008B500680B49884212D10B48016841F4E5
:1014F000807101600068002200F480700090114645
:101500002D20FFF7D7FCBDE808402D20FFF7C4BC15
:1015100008BD0000002000404038024090F83D1017
:10152000012901D001207047022180F83D10016897
:10153000CA6842F00102CA6000681149884214D0AA
:10154000B0F1804F11D00F4988420ED00E49884229
:101550000BD00E49884208D00D49884205D00D496C
:10156000884202D00C49884204D1816801F0070109
:10157000062903D0016841F0010101600020704795
:10158000000001400004004000080040000C004042
:10159000000401400040014000180040704770B551
:1015A0000446006801694FF00005C943890715D456
:1015B000C168C943890711D4E91E01610120207760
:1015C000206880698007204602D0FFF7E7FF04E02B
:1015D00000F098F8204600F096F825772068016919
:1015E000C943490717D4C168C943490713D46FF0E9
:1015F00004010161022020772068806910F4407F97
:10160000204602D0FFF7CAFF04E000F07BF8204636
:1016100000F079F8257720680169C943090716D4D5
:10162000C168C943090712D46FF0080101610420A1
:1016300020772068C0698007204602D0FFF7AEFF00
:1016400004E000F05FF8204600F05DF825772068A0
:101650000169C943C90617D4C168C943C90613D46F
:101660006FF010010161082020772068C06910F434
:10167000407F204602D0FFF791FF04E000F042F8DF
:10168000204600F040F8257720680169C943C90762
:1016900008D1C168C943C90704D1891E0161204628
:1016A00000F032F820680169C943090609D4C1680D
:1016B000C943090605D46FF0800101612046FFF798
:1016C000DFFE20680169C943490609D4C168C943DE
:1016D000490605D46FF040010161204600F056F83C
:1016E00020680169C94389060BD4C168C9438906CA
:1016F00007D46FF0200101612046BDE87040FFF77C
:10170000C0BE70BD7047704770B51E4C1E4D20683E
:1017100000280BDD4FF00001084602F0A3FD8021F8
:101720002846FFF74BFB2068401E0CE00CDA4FF018
:1017300001014FF0000002F095FD80212846FFF7DF
:101740003DFB2068401C2060606800280CDD4FF0E5
:1017500000014FF0010002F085FD40212846FFF70F
:101760002DFB6068401E0BE00BDA4FF001010846CC
:1017700002F078FD40212846FFF720FB6068401CFE
:10178000606070BD40000020000802407047704754
:1017900070470000F8B5016804460868CA684B69DC
:1017A00010F00F0F4FF0000559D003F0010602F4BE
:1017B0009077374365D0C10705D0D10503D5216C9B
:1017C00041F001012164410705D5D90703D0216CFF
:1017D00041F002012164810705D5D90703D0216CAE
:1017E00041F004012164010707D502F020013143D3
:1017F00003D0216C41F008012164216C00293AD00A
:10180000800604D5900602D5204600F03FFD2068F2
:101810004069216CC0F38010090700D460B32046F2
:1018200000F0FFFC20684069400621D52068143094
:1018300050E8001F21F0400140E80012002AF5D1D5
:10184000A06BA8B16C490165A06BFFF729F80028CF
:1018500011D0A06B016D01B0BDE8F04008478306D0
:101860000FD593060DD52046BDE8F84000F00EBD1B
:101870002046FFF78DFFF8BD2046FFF789FF25645E
:10188000F8BD266B2023012E79D1C60677D5D60662
:1018900075D50868486800904869400640D5A16B36
:1018A000086840680004000CEAD0A28D8242E7D9A3
:1018B000E085C869B0F5807F2DD020680C3050E8F5
:1018C000001F21F4807140E80012002AF5D1206841
:1018D000143050E8001F21F0010140E80012002AF6
:1018E000F5D12068143050E8001F21F0400140E895
:1018F0000012002AF5D184F83E30256320680C30B0
:1019000050E8001F21F0100140E80012002AF5D134
:10191000A06BFEF77CFFA08DE18D401A81B229E01B
:10192000A08DE18D401A81B2E08D0028A8D0002959
:10193000A6D020680C3050E8002F22F4907240E8C6
:101940000026002EF5D12068143050E8002F22F038
:10195000010240E80026002EF5D184F83E302563D0
:1019600020680C3050E8002F22F0100240E80023DD
:10197000002BF5D12046FFF70AFFF8BDFFE705066B
:101980002BD5150629D594F83D002128F5D1A0685E
:10199000B0F5805F01D12069B0B1206A411C21629D
:1019A000216800784860E08C401E0004000CE08450
:1019B000E3D12068C16821F08001C1602068C1685E
:1019C00041F04001C160D8E7206A0088C0F30800F8
:1019D0004860206A801C2062E5E74006CDD55006AD
:1019E000CBD5CA68204622F04002CA6084F83D3058
:1019F00000F0CBF9C1E700002D21000870B504000C
:101A000004D094F83D00002510B106E0012070BD1F
:101A100084F83C50204600F023F8242084F83D0050
:101A20002068C16821F40051C160204600F08EFC9E
:101A30002068016921F4904101612068416921F029
:101A40002A0141612068C16841F40051C1602564E8
:101A5000202084F83D0084F83E00002070BD000086
:101A60002DE9F04186B0064614216846FEF7A5FC34
:101A70006248614FD6F800C0604910380322022343
:101A80005F4D0024BC4517D10E6846F400260E6059
:101A9000096801F400210591016841F0010101602C
:101AA0000068694600F0010005908DE81C000820E0
:101AB000CDE9032028469CE0DFF848810727C4458C
:101AC00022D14E49091D0E6846F010060E600968C5
:101AD00001F010010591016841F001010160006809
:101AE000694600F0010005904FF4C0608DE81900D0
:101AF000CDE903272846FFF769F800221146252083
:101B0000FFF7D8F9252054E0DFF8FC80C44555D113
:101B1000D1F800C04CF4003CC1F800C0096801F4E1
:101B200000310591016841F00101016000686946DA
:101B300000F0010005900C208DE81900CDE9032785
:101B40002846FFF743F8324D30484FF000672860D1
:101B5000C5E901744FF48068C5E903486C61AC6164
:101B6000EC612C6228466C62FEF77CFF08B1FEF740
:101B70004CFEB563AE63264D244860351830E5E869
:101B800002074020A5E81101214845F814496030BA
:101B9000AC61EC612C626C62FEF764FF08B1FEF789
:101BA00034FE7563002211462620AE63FFF782F9EA
:101BB0002620FFF771F906B0BDE8F081154DAC4560
:101BC000F9D10D6845F480250D60096801F4802184
:101BD0000591016841F0020101600068694600F06A
:101BE000020005904FF440608DE81900CDE903270D
:101BF0000948FEF7EBFFDEE7004C004040380240AA
:101C00000000024000100140004400408860024093
:101C1000A0010020004800400004024090F83E303F
:101C2000202B0ED159B152B190F83C30012B08D085
:101C3000012380F83C300023036300F00DBC012039
:101C4000704702207047000010B500681B498842A9
:101C500032D11B4A907D55281CD1D07D532819D1F3
:101C6000117E507E01F078FEDFED161A9FED161AF8
:101C7000134B20EE210A243BC0EE010AC3ED000AFB
:101C8000917ED07E01F068FE20EE210AC0EE010AAE
:101C9000C3ED010A0A48303890EC063A0B4890EC44
:101CA000060A01F071FE01F0CBFDBDE810402122D3
:101CB00003490748FFF7B2BF10BD000000440040D1
:101CC00090020020DB0F4940000034C310000020C8
:101CD00018010020704700002DE9F843044690F8F1
:101CE0003D001F4616460D4620284CD1C5B1BEB159
:101CF00094F83C00012846D0012084F83C004FF0C5
:101D00000008C4F84080212084F83D00FFF764F803
:101D1000A6848146E684A068B0F5805F03D004E025
:101D20000120BDE8F883206928B12E465FF0000548
:101D300084F83C800EE00026FAE78021204600F07F
:101D4000D5FBA0B9AEB116F8010B21684860E08C54
:101D5000401EE084E08C4B464FF0000200970028C4
:101D6000EBD14FF04001204600F0C0FB30B1032022
:101D7000D7E735F8020BC0F30800E6E7202084F827
:101D80003D000020CDE70220CBE77047FEE70000D2
:101D90000D4808B5016841F4001101600068002297
:101DA00000F40010009011461020FFF783F8102077
:101DB000FFF772F8002211461120FFF77BF8BDE80B
:101DC00008401120FFF768B8303802402DE9F04193
:101DD00086B014216846FEF7F0FA2B480026016809
:101DE00041F080010160016801F080010591016806
:101DF00041F001010160016801F0010105910168F4
:101E000041F002010160016801F0020105910168E1
:101E100041F004010160016801F0040105910168CD
:101E200041F0080101600068184F00F008000590BB
:101E300000224FF486513846FEF7C8FFDFF8508085
:101E4000002204214046FEF7C1FF0224C0200125E4
:101E500003948DE8610069463846FEF7B7FEE0025C
:101E60000090CDE90154694638460394FEF7AEFE72
:101E7000042003948DE8610069464046FEF7A6FE03
:101E800006B0BDE8F0810000303802400008024092
:101E9000000C02400B4810B509490160A7214160C0
:101EA00000216322C0E9021201618161FFF7EAFAB1
:101EB000002803D0BDE81040FEF7A7BC10BD00000D
:101EC00000200040480000200C4810B50A4901607D
:101ED0004FF4E1314160002181600C22C160C0E912
:101EE00004128161C161FFF789FD002803D0BDE8BC
:101EF0001040FEF78ABC10BD004C0040900000204E
:101F00000C4810B50A4901604FF416514160002198
:101F100081600C22C160C0E904128161C161FFF7D8
:101F20006DFD002803D0BDE81040FEF76EBC10BD6B
:101F300000100140D40000200C4810B50A4901608F
:101F40004FF4E1314160002181600C22C160C0E9A1
:101F500004128161C161FFF751FD002803D0BDE883
:101F60001040FEF752BC10BD004400401801002094
:101F70000C4810B50A4901604FF4E131416000217D
:101F800081600C22C160C0E904128161C161FFF768
:101F900035FD002803D0BDE81040FEF736BC10BD6B
:101FA000004800405C010020FEE7FEE770477047F4
:101FB000FEF718BF30B593B030216846FEF7FDF943
:101FC00014210CA8FEF7F9F91D480025016841F01D
:101FD00080510160006800F080501190194801683C
:101FE00041F4804101600068022400F480401190B7
:101FF00001200090000401908001CDE9064008AA6C
:102000000420A82182E813000B906846FFF76EF8C1
:1020100008B172B6FEE70CA90F2081E831004FF439
:10202000A0500F904FF48050109005210CA8FEF79F
:1020300073FF002801D072B6FEE713B030BD000078
:1020400040380240007000400248016841F47001CD
:102050000160704788ED00E00148FFF7A0BA00007A
:1020600048000020F0B50268254C264D264E274F2B
:10207000274B4FF0804CA04209D0604507D0A842C2
:1020800005D0B04203D0B84201D0984204D122F02A
:10209000700E4A6842EA0E02A0421BD0604519D079
:1020A000A84217D0B04215D0B84213D0984211D0F0
:1020B000184DA8420ED0184DA8420BD0174DA8427B
:1020C00008D0174DA84205D0164DA84202D0164D93
:1020D000A84203D122F44075CA682A434D6922F010
:1020E00080022A4302608A68C2620A688262A04251
:1020F00001D0984201D10969016301214161F0BD1C
:10210000000001400004004000080040000C0040B6
:1021100000040140004001400044014000480140EB
:1021200000180040001C00400020004010B5806BEB
:102130000021C185C184FFF72BFB10BD70B5846BF6
:102140002068406994F83D10C0F3C0100025212993
:1021500004D118B1E584204600F08AF8206840696F
:1021600094F83E10C0F38010222904D118B1E585FF
:10217000204600F056F8206C40F010002064204605
:10218000FFF706FB70BD10B50146806B0968096852
:10219000C9052FD40021C18501680C3151E8002FF9
:1021A00022F4807241E80023002BF5D1016814313C
:1021B00051E8002F22F0010241E80023002BF5D165
:1021C0000168143151E8002F22F0400241E8002359
:1021D000002BF5D1202180F83E10016B012909D197
:1021E00001680C3151E8002F22F0100241E8002371
:1021F000002BF5D1016B012902D0FFF725FD10BDA1
:10220000818DFFF7C4FA10BD10B5806B016B0129F9
:1022100002D0FFF75FFD10BD818D4908FFF7B7FAC7
:1022200010BD01680C3151E8002F22F4907241E892
:102230000023002BF5D10168143151E8002F22F062
:10224000010241E80023002BF5D1016B012909D1DE
:1022500001680C3151E8002F22F0100241E8002300
:10226000002BF5D1202180F83E100021016370473A
:1022700001680C3151E8002F22F0C00241E8002330
:10228000002BF5D1202180F83D10704708B590F85B
:102290003E10222901D0022008BD82684FF48053ED
:1022A0009A4201D1016921B1816A9A421BD04AB197
:1022B0000AE00268816A5268C2F308020A80816AF1
:1022C000891C08E0026972B10268526802F07F025C
:1022D0000A70816A491C8162C18D491E0904090C7A
:1022E000C18503D019E002685268F1E70168CA6845
:1022F00022F02002CA600168CA6822F48072CA60B3
:1023000001684A6922F001024A61202180F83E10EA
:10231000016B012903D0FFF797FC002008BD0021C5
:10232000016301680C3151E8002F22F0100241E8EE
:102330000023002BF5D101680A68D20602D50A688D
:1023400049680091818DFFF722FAE6E770B50446EF
:1023500000680169E26821F440511143016121697B
:10236000A068E26908436169114308432168CA68AB
:1023700049F20C639A430243CA6020684169A2692A
:1023800021F440711143416131492068884202D0F3
:102390003049884202D1FEF769FE01E0FEF756FEA1
:1023A000E2690023192164253226B2F5004F6268E4
:1023B00028D0A0FB0101930F9200FDF755FF0146C5
:1023C000B0FBF5F06FF01802504301EB800006EB14
:1023D0000010B0FBF5F000F0F002B1FBF5F002EBFD
:1023E0000012B1FBF5F06FF01803584301EB8000C9
:1023F00006EB0010B0FBF5F000F00F002168104470
:10240000886070BDA0FB010192185B41FDF72CFFB5
:102410000146B0FBF5F00201B1FBF5F06FF01803D7
:10242000584301EB800006EBC000B0FBF5F000F074
:10243000F80002EB4002B1FBF5F0584301EB8000DD
:1024400006EBC000B0FBF5F000F00700D6E7000097
:10245000001001400014014038B5816282850025DA
:10246000134604460564222084F83E00A26B1C48F3
:10247000D063A26B1B481064A26B1B48D064A06B96
:102480000A4605652168A06B091DFEF755FB20680B
:1024900001684068009084F83C50206948B1206889
:1024A0000C3050E8001F41F4807140E80012002A0F
:1024B000F5D12068143050E8001F41F0010140E8D8
:1024C0000012002AF5D12068143050E8001F41F0B6
:1024D000400140E80012002AF5D1002038BD00007C
:1024E00087210008092200083D2100082DE9F0415C
:1024F000984617460E460446069D27E0681C25D0E0
:102500002DB1FEF769FCA0EB0800A8421ED9206897
:102510000C3050E8001F21F4D07140E80012002A6E
:10252000F5D12068143050E8001F21F0010140E887
:102530000012002AF5D1202084F83D0084F83E00E6
:10254000002084F83C000320BDE8F081206800688A
:1025500036EA000004D00020B842CFD00020F3E7D4
:102560000120F9E70148FFF715B90000D400002069
:102570000148FFF70FB9000018010020FEE703B47F
:1025800001984100009850EAC12018BF04204A0D6C
:1025900018BF40F0010040F2FF72B2EB515F08BF7C
:1025A00040F00200012808BF052002B0704709076B
:1025B000090E002804DB00F1E02080F800147047C9
:1025C00000F00F0000F1E02080F8141D70470000BB
:1025D00070B5C1482DED020B2DED0E8B82B0119D13
:1025E00025F000449FEDBEDB9FEDBFEB84423EDB58
:1025F000A4F140511098A1F17F6108430FD0BC486D
:10260000844202DC28D1109830B39DED100B02B04B
:10261000BDEC0E8B02B0BDE8704001F0DDB89DED61
:10262000100B53EC1D2B51EC100B02F035F99DED06
:10263000100B41EC180B53EC1E2B51EC100B02F05D
:102640002BF953EC182B01F0CDFE41EC100B02B02E
:10265000BDEC0E8B02B070BD0120FDF7DDFE02B0B7
:10266000BDEC0E8B02B0BDE8704001F0C9B8A148C6
:102670009FEDA18B844256DA9DED100BB4F1795F8A
:102680000ADA51EC100BFFF77AFF042808BF01F0BB
:10269000C7F89DED100BDAE753EC102B51EC100B43
:1026A00002F0FAF841EC190B95480621B0EE490A00
:1026B000F0EE690A784400F07BFF53EC192B51ECE3
:1026C000100B02F0E9F841EC1A0B8E48B0EE490A03
:1026D000F0EE690A0421784400F06AFF53EC192BEC
:1026E00051EC100B02F0D8F853EC182B01F07AFEE5
:1026F00041EC100B51EC1A0B53EC102B01F01AFFAC
:10270000CDE900019DED000B53EC102B9DED100B5E
:1027100051EC100B02F0C0F89DED101B53EC112B87
:1027200001F060FED2E09DED100B51EC100B01F0BA
:1027300089FC53EC182B02F0ADF99FED730BCDE93A
:10274000000153EC102B9DED000B51EC100B02F02F
:10275000A3F841EC190B6E480621B0EE490AF0EEE1
:10276000690A784400F024FF53EC192B51EC100B4C
:1027700002F092F841EC1B0B6648B0EE490AF0EE0D
:10278000690A0421784400F013FF53EC192B51EC33
:10279000100B02F081F853EC182B01F023FE41ECF2
:1027A0001C0B51EC190B01F075FD41EC180B5A484C
:1027B0009FED5BABA04222DC53EC1C2B51EC1B0BBE
:1027C00001F0B8FECDE900019DED000B51EC180BB6
:1027D00053EC102B02F060F853EC182B01F002FEC2
:1027E00053EC1A2B02F058F853EC1D2B02F02AFA86
:1027F00053EC1E2B02F04EF941EC100B5FE08DED17
:10280000008B002000909DED000B51EC180B53EC59
:10281000102B01F0E7FD9DED000B41EC1E0B53EC7E
:10282000102B51EC100B02F037F853EC192B02F07F
:1028300031F953EC1E2B01F07DFE41EC190B53ECEA
:102840001C2B51EC1B0B01F075FE41EC1B0B53ECE8
:102850001A2B51EC190B02F01FF853EC1D2B02F050
:1028600019F941EC190B53EC1A2B51EC180B02F02F
:1028700013F853EC1B2B02F00FF853EC192B02F05A
:10288000E1F99DED000B41EC180B53EC1A2B51ECC8
:10289000100B02F001F89FED249B53EC192B02F072
:1028A000F9F841EC100B51EC180B53EC102B02F023
:1028B000C9F953EC192B02F0EDF841EC100B002D87
:1028C0003FF7C5AE51EC100B01F04EFD41EC100B83
:1028D000BDE60000000000000000F03F0000000026
:1028E000075C143326A6913C182D4454FB21F93F74
:1028F0000000F07F0000E03F000000000000F03F1B
:10290000C8280000D6280000000000000000E03FBA
:102910001A280000282800003333EF3F0000000091
:102920000000000000000040182D4454FB21E93F46
:1029300070B59B482DED020B2DED068B079D25F004
:102940000044A04218DC9748844202DC0AD1069871
:1029500040B19DED060BBDEC068B02B0BDE87040AA
:1029600000F03ABF002DCCBF9FED8F0B9FED900B79
:10297000BDEC068B02B070BD8F48A04215DD8F48BC
:10298000A042D8BF4FF0FF3458DD9DED060B51EC4F
:10299000100BFFF7F4FD042808BF00F041FF9DED88
:1029A000060BBDEC068B02B070BD9DED060B51EC25
:1029B000100B01F047FBCDE9060181489FED828BAA
:1029C000A0423CDD8248A0421FDD00249FED82AB87
:1029D0009DED060B53EC1A2B51EC100B01F002FD90
:1029E0009DED060B41EC190B53EC1A2B51EC100B1F
:1029F00001F052FF53EC182B02F024F953EC192B81
:102A000001F098FDCDE9060149E09DED060B01249A
:102A100053EC182B51EC100B01F0E4FC9DED060B70
:102A200041EC190B53EC182B51EC100B02F00AF986
:102A300053EC192B01F07EFDCDE906012FE068482B
:102A4000A0421FDD02249FED689B9DED060B53EC19
:102A5000192B51EC100B01F01FFF53EC182B01F058
:102A6000C1FC9DED060B41EC180B53EC192B51ECFE
:102A7000100B02F0E7F853EC182B01F05BFDCDE9E9
:102A800006010CE09DED060B032453EC102B9FED8B
:102A9000580B51EC100B01F04DFDCDE906019DEDF9
:102AA000060B53EC102B51EC100B01F0F5FE41EC32
:102AB000180B53EC182B01F0EFFE41EC190B4E48AC
:102AC0000621B0EE490AF0EE690A784400F070FD84
:102AD00053EC182B51EC100B01F0DEFE41EC180BFF
:102AE0004648B0EE490AF0EE690A0521784400F044
:102AF0005FFD53EC192B51EC100B01F0CDFE41ECB6
:102B0000100B51EC180B53EC102B002C0EDA01F0CB
:102B100069FC9DED061B53EC112B01F0BDFE9DEDF4
:102B2000061B53EC112B01F0B5FF35E001F05AFC08
:102B30009DED061B53EC112B01F0AEFE41EC100B8A
:102B40002F48784400EBC40090ED001B51EC100BB3
:102B500053EC112B02F076F89DED061B53EC112B74
:102B600002F070F841EC100B2648784400EBC400EA
:102B700090ED001B51EC100B53EC112B01F08AFF70
:102B800041EC100B002DA2BFBDEC068B02B070BD56
:102B900051EC100B01F0E8FB41EC100B01E70000D9
:102BA000000010440000F07F182D4454FB21F93F31
:102BB000182D4454FB21F9BF0000DC3F0000203EEB
:102BC0000000F33F00000000000000000000F03FA4
:102BD0000000E63F00000000000000000000004090
:102BE0000080034000000000000000000000F83FEB
:102BF000000000000000F0BF6A2500002025000052
:102C0000AA2400006224000070B56B4E2DED040B69
:102C10002DED028B82B0DDF81CC0DDE905235C429E
:102C20002CF000411C4341EAD474049D22F0004082
:102C3000B44205D86C422C4340EAD474B4420BD958
:102C40009DED061B9DED040B02B0BDEC028B04B0A4
:102C5000BDE8704000F0CABDACF14054A4F17F64FF
:102C60001C430BD0022404EAAC7444EAD27405433A
:102C70009FED538B9FED542B07D015E09DED040B7A
:102C800051EC100B00F060FE42E0002C11BF012C53
:102C90009DED040B02B0BDEC028B04BF04B070BD0F
:102CA000022C38D0032C3BD00B439FED491B9FEDEA
:102CB0004A0B0AD0B14218D1B04209D121F080416B
:102CC00020F08040079105900FE0002A15DA10E00F
:102CD000434B7B44002C08BF93ED000B0DD0012C1F
:102CE00010D0022C17D0032C1AD0B0421DD1002ACC
:102CF00003DAB0EE410AF0EE610A02B0BDEC028BDD
:102D000004B070BD93ED000B51EC100B01F02CFBE7
:102D100041EC100BF1E7B0EE480AF0EE680AECE780
:102D2000B0EE420AF0EE620AE7E7401A00153C28CE
:102D3000C8BF8DED000B19DCBCF1000FBEBF10F158
:102D40003C0F9FED290B8DED000B0FDB9DED060B6E
:102D500053EC102B9DED040B51EC100B01F0EAFB32
:102D600001F070F900F0F0FDCDE90001002C08BF82
:102D70009DED000BC1D0012C10D0022C9FED1C0B3F
:102D800053EC102B9DED000B51EC100B0DD001F00E
:102D900059FF53EC182B01F055FFB9E7019880F06B
:102DA000004001909DED000BA7E701F04BFF53ECB5
:102DB000182B01F06FFEABE70000F07F0000000071
:102DC000182D4454FB210940182D4454FB2109C0FF
:102DD000182D4454FB21F9BF182D4454FB21F93F11
:102DE000C2230000000000000000000000000000FE
:102DF000075C143326A6A13C10B52F499FED2C1B70
:102E00002DED020B84B0059820F000408842D8BF19
:102E10009DED040B2DDD2949884209D1049840B964
:102E20004FF00100FDF7F8FA00F0EAFC06B010BD23
:102E300005DB9DED040B00F0CFFC06B010BD68462D
:102E40009DED040B00F0E0F810F0030004BF9DEDD1
:102E5000021B9DED000B0CD001280ED09DED021B36
:102E60009DED000B022817D0012000F01DFC06B0DC
:102E700010BD00F0E5FA06B010BD9DED021B9DED02
:102E8000000B012000F010FC51EC100B01F06CFA6B
:102E900006B041EC100B10BD00F0D2FA51EC100B53
:102EA00001F062FA06B041EC100B10BD000000000A
:102EB0000000000000000000FB21E93F0000F07F5F
:102EC00010B52F499FED2C1B2DED020B84B00598FA
:102ED00020F000408842DCBF00209DED040B32DD75
:102EE0002849884209D1049840B94FF00100FDF704
:102EF00093FA00F085FC06B010BD05DB9DED040BD8
:102F000000F06AFC06B010BD68469DED040B00F0B1
:102F10007BF810F0030011D0012818D09DED021BA2
:102F20009DED000B02281AD000F08AFA51EC100B2C
:102F300001F01AFA06B041EC100B10BD9DED021B1A
:102F40009DED000B012000F0AFFB06B010BD9DED24
:102F5000021B9DED000B00F073FA06B010BD0120BE
:102F600000F0A2FB51EC100B01F0FEF906B041ECB1
:102F7000100B10BD00000000000000000000000069
:102F8000FB21E93F0000F07F00B52DED048BB0EE92
:102F9000409AF0EE609A83B051EC190B01F086FD77
:102FA00041EC180B18EE100A18EE901A8DED008BFC
:102FB000002818BF0120084320F00040C0F17F60C6
:102FC00000F1E040C00F14D019EE101A19EE900A6B
:102FD0008DED009B002918BF0121084320F000401F
:102FE000C0F17F6000F1E040C00F04BF0120FDF799
:102FF00013FAB0EE480A03B0F0EE680ABDEC048B99
:1030000000BD0000000000002DE9F14F04462DED49
:10301000020B2DED088B8AB09FEDE70B80ED020BC4
:10302000139EE74826F0004585420ADC9DED120B11
:10303000002084ED000B0AB0BDEC088B03B0BDE8A6
:10304000F08FE0489FEDE0AB9FEDE1BBA84247DD8C
:10305000E14F9FEDE39B9FEDE48B9DED120B53EC55
:103060001A2B51EC100B002E1CDD01F0EBFD41EC96
:10307000100BBD4208D053EC1B2B51EC100B01F090
:10308000E1FDC4E900010BE053EC192B51EC100BEE
:1030900001F0D8FD53EC182B01F0D4FDC4E9000178
:1030A0000120C8E701F09EF941EC100BBD4208D0A9
:1030B00053EC1B2B51EC100B01F094F9C4E9000107
:1030C0000BE053EC192B51EC100B01F08BF953EC86
:1030D000182B01F087F9C4E900014FF0FF30AAE78F
:1030E000C348A84279DB9DED120B51EC100B00F0A8
:1030F000A9FF41EC180B9FEDC00B53EC102B01F016
:10310000CBFB9FEDBF1B53EC112B01F06BF901F0D2
:1031100069FB074601F095FB41EC190B53EC1A2BA8
:1031200001F0BAFB53EC182B01F0B4FC41EC180B86
:1031300053EC1B2B51EC190B01F0AEFBDFF8C8A2CE
:1031400041EC100B4FEA15580125FA4453EC102BB3
:1031500051EC180B01F076FD032DC4E900013DD0C0
:10316000C1F30A5005EB4511A8EB0000113981426B
:1031700034DA0AEB051BB0EE48AA9BED000BF0EE2B
:1031800068AA53EC102B51EC190B01F085FB41ECB4
:103190001B0B51EC1A0B53EC1B2B01F053FD41ECB4
:1031A000180B51EC1A0B53EC182B01F04BFD53ECA0
:1031B0001B2B01F047FD9BED020B41EC1A0B53EC6E
:1031C000102B51EC190B01F067FB53EC1A2B01F09B
:1031D00039FD41EC100B6D1CB8E70EE0002EA8BFC6
:1031E0003846BFF628AF94ED000B51EC100B01F000
:1031F000BBF8C4E9000178421DE7C6F3130040F4B0
:10320000801EC6F30A50A0F2F530471100F01F05EA
:10321000C5F12000DDF848B0089000200690079026
:103220000520EC467949002D07EB0002794408BFE0
:1032300051F8221009D051F8223001EB8201AB4045
:103240004A68089922FA01F11943A1FB0E26A1FB55
:103250000B131A449A4234BF0123002303EB0608E0
:103260000CEB8003D3E901A60E448E4234BF01214A
:10327000002192448A4411B1924502D903E092455B
:1032800001D2012100E00021C3E901A641444CF82C
:103290002010011EA0F10100C4DC029800F10050D2
:1032A000850F0298DDE903678000DDF8148001F0E6
:1032B000C8FA41EC1A0B304601F0DAFA9FED541BC4
:1032C00053EC112B01F0E8FA41EC1B0B384601F0EE
:1032D000CFFA9FED511B53EC112B01F0DDFA41ECBD
:1032E000180B404601F0C4FA9FED4D1B53EC112B17
:1032F00001F0D2FA41EC190B51EC180B53EC192BDD
:1033000001F070F853EC1B2B01F06CF853EC1A2B06
:1033100001F068F8CDE90801002008909DED080B48
:1033200053EC1A2B51EC100B01F08CFC53EC1B2BC3
:1033300001F088FC53EC182B01F084FC53EC192BA2
:1033400001F0A8FB9FED381B53EC112B01F0A4FA00
:103350009FED370B41EC180B53EC102B9DED080B38
:1033600051EC100B01F098FA53EC182B01F03AF8DD
:103370009FED310B41EC180B53EC102B9DED080B1E
:1033800051EC100B01F088FA53EC182B01F02AF8DD
:1033900041EC100B139810F0004F06D06D4251EC29
:1033A000100B00F0E1FF41EC100B284684ED000B00
:1033B00041E60000000000000000000000000000E6
:1033C000FB21E93F7CD9024000004054FB21F93F3A
:1033D0003163621A61B4D03DFB21F93F0000000067
:1033E0000000601A61B4D03D7370032E8A19A33BAC
:1033F000FB2139410000000083C8C96D305FE43F04
:10340000000000000000E03F521F0000A01E00006E
:10341000000000000000103E000000000000103C12
:10342000000000000000103A182D4454FB21F93D23
:103430003326A611460B113C00000054FB21F93D38
:1034400010B52DED040B2DED088B82B0B0EE419A36
:10345000F0EE619A0B9820F000449FED4BABB4F175
:10346000795F11DA9DED0A0B51EC100B01F0BAF9FE
:10347000002801BFB0EE4A0AF0EE6A0A02B0BDECC5
:10348000088B04BF04B010BD9DED0A0B53EC102B4C
:1034900051EC100B01F000FA41EC180B3C480621EE
:1034A000B0EE480AF0EE680A784400F081F853EC78
:1034B000182B51EC100B01F0EFF99DED0A0B41ECCC
:1034C0001B0B53EC192B51EC100B01F0E5F941ECFF
:1034D000190B53EC1B2B51EC180B01F0DDF953ECDD
:1034E000192B01F0AFFB9FED2C0B41EC190B53ECAA
:1034F000102B51EC180B01F0CFF941EC100B2848C0
:10350000844210DA53EC192B51EC100B01F09AFBAA
:1035100053EC1A2B01F0BEFA41EC100B02B0BDECDB
:10352000088B04B010BD1F48A042BCBF9FED1E1BFE
:103530008DED001B06DBA4F500100190002000902B
:103540009DED001B51EC100B53EC112B01F07AFB9D
:103550009DED000B41EC180B53EC102B51EC1A0BAA
:1035600001F070FB41EC1A0B53EC192B51EC180BCA
:1035700001F068FB53EC1A2B01F08CFA41EC100BB4
:10358000CCE7000000000000000000000000F03F59
:10359000BC1B000000000000000000000000E03F35
:1035A0003333D33F0000E93F000000000000D23F6A
:1035B00070B504462DED028B4D1E00EBC500B0EE3C
:1035C000408AF0EE608A90ED000B35F0060017D0CF
:1035D00053EC182B51EC100B01F05EF941EC100B81
:1035E0006D1E04EBC50090ED001B51EC100B53EC6D
:1035F000112B00F0F7FE41EC100B35F00600E7D17F
:10360000022D36D0042D1CD0062D1CBFBDEC028B24
:1036100070BD53EC182B51EC100B01F03DF994EDFB
:103620000A1B53EC112B00F0DDFE53EC182B01F0BC
:1036300033F994ED081B53EC112B00F0D3FE41EC51
:10364000100B53EC182B51EC100B01F025F994EDF5
:10365000061B53EC112B00F0C5FE53EC182B01F0A8
:103660001BF994ED040B53EC102B00F0BBFE41EC66
:10367000100B53EC182B51EC100B01F00DF994EDDD
:10368000021B53EC112B00F0ADFE53EC182B01F094
:1036900003F994ED001B53EC112B00F0A3FEBDECDD
:1036A000028B41EC100B70BD31B504462DED040BBF
:1036B0002DED0A8BB0EE41BAF0EE61BA0B989DED9C
:1036C0000A0B20F00040B0F1795F0DDA51EC100BDD
:1036D000FEF755FF042808BF00F0A2F89DED0A0B85
:1036E000BDEC0A8B05B030BD53EC102B51EC100B28
:1036F00001F0D2F841EC180B9DED0A0B53EC182B9E
:1037000051EC100B01F0C8F841EC190B2C48B0EE4D
:10371000480AF0EE680A05217844FFF749FF9FED5B
:103720002ACBB0EE40AAF0EE60AA9CB353EC1C2B5F
:1037300051EC190B01F0B0F841EC1C0B53EC1A2BB7
:1037400051EC190B01F0A8F89FED210B41EC190B7E
:1037500053EC102B51EC1B0B01F09EF853EC192B82
:1037600001F070FA53EC182B01F096F853EC1B2B78
:1037700001F068FA53EC1C2B01F064FA9DED0A1B72
:1037800053EC112B01F086F9BDEC0A8B05B041EC2E
:10379000100B30BDFFE753EC1A2B51EC180B01F066
:1037A0007BF853EC1C2B00F01DFE53EC192B01F0A1
:1037B00073F89DED0A1B53EC112B00F013FEE3E7A9
:1037C0004C1A000000000000495555555555C5BF1D
:1037D000000000000000E03F10B553EC102B51EC4E
:1037E000100B00F0FFFD41EC100B10BD10B553ECB9
:1037F000112B51EC100B00F0F5FD41EC100B10BD3E
:103800009FED050B10B553EC102B51EC100B00F095
:1038100091FE41EC100B10BD000000000000000004
:103820009FED050B10B553EC102B51EC100B01F074
:1038300033F841EC100B10BD000000000000001038
:10384000F0B4364B002000BF53F8201021F00041A7
:10385000C1F1FF4100295FD4401C0628F4DB2F4949
:103860000020DFED2F0A9FED2F1A9FED2F0A3C312C
:103870009FED2E2ADFED2E2A2E4C2F4D41E0E8B38E
:1038800002283ED004283CD003EB8002DFED2B3A27
:10389000D2ED001A21EEA03AC3EE231A9FED283A8A
:1038A00071EE831A01EB800261EE801A81EE813A9B
:1038B00082ED003A01EB8002D2ED001AF5EEC01A5B
:1038C000F1EE10FA03D2DFED1F1AC2ED001A11EE6D
:1038D000906AA64201DD82ED000AD2ED001A05EBE6
:1038E0008006401CFCEEE11A062811EE902A728038
:1038F000C5DBF0BC322206210F4800E001E000F0F9
:10390000C5BB03EB8002D2ED001A21EEA03AC3EE54
:10391000021A71EEA21AC5E7F0BC704778020020C7
:10392000000034430000704300007A44DB0F49403C
:103930000000964200007A4428000020DB0F49C0B6
:10394000000025430000000010B541EC100BFEF70D
:10395000EFFF51EC100B10BD41EA002000B2010452
:1039600000D500B200EE100ADFED050AB8EEC00A7D
:1039700020EE200ADFED030A20EE200A7047000047
:1039800000000038000034432DE9F04F18222DEDDF
:103990000E8BADF2C44DB0EE64CAF0EE45CAB0EE87
:1039A00065DAF0EE43DAB0EE63EAF0EE44EAF0EE08
:1039B000628AF0EE42AAB0EE619AB0EE418AB0EEB1
:1039C00060AAF0EE409AFE49A6A8FCF7C4FCCDED33
:1039D00018AACDED19AA9FEDFB0A002418AE3AEE05
:1039E000801A70EE6A0A8DED1A1ACDED1B0ACDED24
:1039F0001C0A70EE680A8DED1D1A38EE800ACDEDB6
:103A0000120ACDED130A8DED140ACDED158ACDED18
:103A1000168A8DED170AF1EE698ADFEDEBAA28AD63
:103A200046E0ECB3012C43D056F8240001F0F4F941
:103A300041EC100BFFF7E0F9B0EE40BAF0EE60BADF
:103A400018EE900A01F0E8F953EC1B2B00F024FF6C
:103A500000F096FC45F82400042C43D0052C41D0FE
:103A600056F8240001F0D8F941EC100BFFF728FAC2
:103A7000B0EE40BAF0EE60BA19EE900A01F0CCF95F
:103A800053EC1B2B00F008FF00F07AFC05EB8401DF
:103A9000886105EB8400641CC0ED0CAA062C00E0D4
:103AA00006E0BEDB0024F1EE4A8A12AF3AAE2CE00B
:103AB00056F8240001F0B0F941EC100BFFF79CF927
:103AC000B0EE40BAF0EE60BA19EE900A01F0A4F937
:103AD00053EC1B2B00F0E0FE00F052FC45F82400F4
:103AE000002CB9D156F8240001F096F941EC100BE6
:103AF000FFF7E6F9B0EE40BAF0EE60BA18EE900AC1
:103B0000BCE7032C7ED0042CFCD057F8240001F035
:103B100083F941EC100BFFF76FF91AEE100AB0EEC3
:103B200040BAF0EE60BA00BF01F076F953EC1B2BFF
:103B300000F0B2FE00F024FC46F82400002C7CD0FB
:103B4000042CFCD0052CFAD057F8240001F064F9BD
:103B500041EC100BFFF7B4F9B0EE40BAF0EE60BAEA
:103B60001AEE100A01F058F953EC1B2B00F094FEEA
:103B700000F006FC06EB8401886106EB8400641CFF
:103B8000C0ED0CAA062CBCDB69EE098A00240DF1FD
:103B9000880848EE088A00BF06EB840705EB84001E
:103BA00097ED000AD0ED000A90ED061A30EE600A9B
:103BB000D7ED060A20EE000A70EEC10A38EEC00A00
:103BC00060EEA00A30EE600A10EE100A01F024F94F
:103BD00041EC100BFFF7D8F951EC100B00F0D0FBC3
:103BE00000EE100AD7ED0C0A08EB8400641C30EEDE
:103BF000600A062C80ED000ACEDB48216846FCF7FF
:103C0000DCFB00E0FDE19DED220AB2A88DED0C0A7F
:103C10008DED0D0A8DED0E0A8DED0F0A8DED100A5A
:103C20008DED110AB0EE4C0A00F06AFAB0EE6C0AA3
:103C3000BBA800F0A1FAC4A800E0F1E1B0EE4D0A83
:103C400000F0D4FA0322B2AB11460DF24C40FCF75F
:103C500071FC0322BBAB11460DF59160FCF76AFCC9
:103C60000322C4AB11460DF59260FCF763FC0322FE
:103C70000DF20C4311460DF58660FCF75BFC032248
:103C80000DF2544311460DF58760FCF753FC0DF51A
:103C900086620DF591610DF59260FCF74FFC0DF514
:103CA00087620DF24C410DF58660FCF747FC64A875
:103CB000B0EE6E1AF0EE4E0AB0EE6D0A00F046FB62
:103CC0006B46062203210DF59460FCF733FC64ABD0
:103CD000062203210DF59560FCF72CFC4CAB062267
:103CE00003210DF59360FCF725FC3AAB0622032176
:103CF0000DF59660FCF71EFC28AB062203210DF59E
:103D00009760FCF717FCCDAB062203210DF58F6001
:103D1000FCF710FCDFAB062203210DF59060FCF7E9
:103D200009FCF1AB062203210DF58860FCF702FCCB
:103D30000DF58F620DF594610DF59560FCF7B0FB04
:103D40000DF590620DF596610DF58760FCF7F6FBB9
:103D50000DF588620DF590610DF58F60FCF7A0FB05
:103D60000DF593620DF597610DF58860FCF7A2FCE7
:103D700000274CAC0DF5EC7604EB870090ED000AC3
:103D8000D0ED060A20EE000A00EEA00AD0ED0C0AE3
:103D900000EEA00A10EE100A01F03EF841EC100B04
:103DA000FFF7F2F851EC100B00F0EAFA46F82700A2
:103DB0007F1C062FE0DB00200DF508787CA905E0CC
:103DC000644F0008920A863F000000000DF5027261
:103DD00004EB800705EB800397ED000AD3ED000AA2
:103DE00001EB800C30EE200A8CED000A97ED060AFC
:103DF000D3ED060A02EB800C30EE200A8CED000AAF
:103E000097ED0C0AD3ED0C0A08EB8003401C30EE52
:103E1000200A062883ED000ADADB00240DF51A7962
:103E20008EA894AB05EB840700EB840C97ED000A99
:103E30008CED000A97ED060A03EB840C8CED000A6A
:103E400009EB840C97ED0C0A641C4F468CED000ABC
:103E5000062CE7DBB0EE000AB14668EE008A0024CB
:103E6000A0AE5EAD09EB840C9CED000A06EB840C61
:103E700020EE000A09EE490A08EE080A8CED000A55
:103E800008EB840C9CED000A07EB840CDCED000AC7
:103E900005EB840C641C30EE600A062C20EE280A28
:103EA0008CED000ADEDB0024934682469946B0463C
:103EB0000BEB840090ED000A09EB8400D0ED000AC2
:103EC00030EE600A10EE100A00F0A6FF41EC190B6C
:103ED000A6A800EB8406306800F09EFF41EC100BB2
:103EE000FEF7EEFF53EC192B51EC100B00F0D4FC55
:103EF00041EC1A0B7CA800EB840090ED000A0AEB61
:103F00008400D0ED000A30EE600A10EE100A00F0D6
:103F100083FF41EC190B306800F07EFF41EC100B81
:103F2000FEF76AFF53EC192B51EC100B00F0B4FCB8
:103F300053EC1A2B00F056FA41EC190B18EE900ACC
:103F400000F06AFF53EC192B00F0A6FC00F018FA01
:103F500000EE100AACA800EB840605EB840786EDA2
:103F6000000AD7ED000A60EEA00A40EE000A10EE4B
:103F7000900A00F051FF41EC100BFFF705F851ECEF
:103F8000100B00F0FDF901EE100A08EB8400D0EDF3
:103F9000000A80EE810A10EE100A00F03DFF41ECAD
:103FA000100BFEF715FB51EC100B00F0E9F908EED1
:103FB000100A386800F030FF41EC190B306800F04F
:103FC0002BFF41EC100BB0EE491AF0EE691AFEF728
:103FD0001BFE51EC100B00F0D3F900EE100A18484C
:103FE00038EE400A00EB8400641C80ED000A062CC9
:103FF000FFF65EAF0DF2C44D1148BDEC0E8BBDE86F
:10400000F08F57F8240000F007FF41EC100BFEF78B
:10401000F3FEB0EE40BAF0EE60BA18EE900A83E517
:1040200057F8240000F0F8FE41EC100BFEF748FFB3
:10403000B0EE40BAF0EE60BA18EE900A92E50000D9
:104040007802002082B0CDE9000121F0004001900B
:104050009DED000B02B051EC100B7047FCF7CAFE4F
:10406000FDF7A8FFFDF7B2FEFDF792FEFDF72CFF6E
:10407000FDF746FFFDF760FFFDF77AFFFDF70AFF4A
:1040800000F040F900F060F9FCE70000F0B407250B
:1040900000244B1E202B2DD2002A2BD0164B552648
:1040A0005E701E7001EB4106761D9E700326DE7069
:1040B00019715A71120A9A7112E000BF10F8242087
:1040C0005A556D1CEAB200EB8405AE789E54521C22
:1040D0006D88D2B22D0A9D54521C641CD5B2E4B234
:1040E0008C42EBD39A78F0BC642303490348921CBA
:1040F000FDF7F2BDF0BC7047CC020020D4000020D8
:1041000070B504462DED028BB0EE408A18EE100A11
:1041100000F082FE41EC100BFEF76EFE51EC100B2E
:1041200000F02EF9054618EE100A00F075FE41EC7D
:10413000100BFEF7C5FE51EC100B00F021F9F7EE65
:10414000000AC4ED000ADFED0B0A00EE100AC4ED10
:10415000010AC4ED020AC4ED030AB1EE401A25615A
:1041600084ED051AC4ED060A84ED070A2562BDEC4C
:10417000028B70BD0000000070B504462DED028B6F
:10418000B0EE408A18EE100A00F046FE41EC100B2B
:10419000FEF732FE51EC100B00F0F2F8054618EE77
:1041A000100A00F039FE41EC100BFEF789FE51ECCD
:1041B000100B00F0E5F8DFED0C0A00EE100A2560A8
:1041C000C4ED010A04F10800B7EE001A80EC030AFE
:1041D000B1EE400AC4ED050A84ED060AC4ED070AF3
:1041E0002562BDEC028B70BD0000000070B5044676
:1041F0002DED028BB0EE408A18EE100A00F00CFE96
:1042000041EC100BFEF7F8FD51EC100B00F0B8F884
:10421000054618EE100A00F0FFFD41EC100BFEF70A
:104220004FFE51EC100B00F0ABF800EE100A2560C9
:10423000F1EE400AC4ED010ADFED090AC4ED020AFD
:1042400084ED030A2561C4ED050AC4ED060AC4ED38
:10425000070AB7EE000A84ED080ABDEC028B70BDB8
:104260000000000040B101280FD10303074851B1FD
:1042700000221946FCF7AABD054811B1002204210D
:10428000F8E70122FBE70122F3E77047000802404C
:10429000000C024000B52DED048B83B041EC190BEE
:1042A00000F004FC41EC180B18EE100A18EE901AFE
:1042B0008DED008B002818BF0120084320F000403E
:1042C000C0F17F6000F1E040C00F14D019EE101A69
:1042D00019EE900A8DED009B002918BF01210843BB
:1042E00020F00040C0F17F6000F1E040C00F04BF4B
:1042F0000120FCF791F851EC180B03B0BDEC048BD6
:1043000000BD000010B50C4890EC063A0B4890EC4C
:10431000060AFFF739FBFFF793FA4FF47A70FCF7C0
:1043200043FC0549212230310548FDF777FCBDE803
:1043300010400448FDF7F2B8600200201000002091
:104340001801002048000020704700005FF00001C5
:1043500000EB8102491C82ED000AC2ED060A82EDE3
:104360000C1A0629F4DB704781F00041704780F099
:104370000040704721F00041704720F00040704736
:1043800021F00042A2F16052B2F5801F01F000431B
:1043900028BFD2F17F6C0BD95FEA001C43EAC2024E
:1043A00042EB507018BF704728BF20F001007047E3
:1043B000B2F5801FBCBF184670474FEA410C1CF590
:1043C000001F02D2084600F0AFBD70B500F00EFB32
:1043D00000000089FFF7F6BF4FF00040A0F5800015
:1043E0007047000010B591EA030F48BF83F0004307
:1043F00000F13084841A71EB030C05D2121943EBDF
:104400000C03001B61EB0C01DFF824E14FEA1154AF
:10441000A4EB135C1EEA430F18BF9EEA445F73D0FF
:1044200023EA0E03DCF1200E21EA045143F4801349
:1044300032D322FA0CFE10EB0E0023FA0CFE41EBF5
:104440000E01CCF1200E03FA0EFE10EB0E0051F11E
:104450000001B1F5801FCCF1200E32D201EB0451E6
:1044600012FA0EF2BDE8104058BF7047401C38BF2A
:104470005FEA420218BF7047002814BF20F0010015
:1044800041F100014FEA410313F5001F38BF7047A7
:10449000A1F1C04100F0F8BA012A43EB0302ACF1EC
:1044A000200CDCF11F0E32BF4FF0000E23FA0CF38C
:1044B00010EB030041EB0451B4EB115FD0D0A1EB42
:1044C000045101F5801149085FEA300001EB045105
:1044D0000ED350F1000038BF12FA0EFE08D1BDE82D
:1044E0001040C9E7401C38BF5FEA4202CAD1C3E7A7
:1044F000BDE810404FEA410313F5001F38BF704775
:10450000A1F1C04100F0C0BA9EEA445F08D011EAB0
:104510005E0FBDE8104004BF01F00041002070476D
:10452000BDE8104070B500F061FA00BF64FBBE3E0C
:104530000000E0FF2DE9C04130B4DFF8A0C23CEA42
:10454000111418BF3CEA131400F0EC8081EA030553
:104550001CEA111444EAD57418BF1CEA131500F0C4
:10456000C780A4EB05044FF0004545EAC12145EAA8
:10457000C32341EA505143EA525304F17F749942F4
:1045800004F500344FEAC0204FEAC22208BF90422F
:1045900000F09C804FEA13650FF24016765D4FEAFB
:1045A000134506FB05F7C7F1807706FB07F74FEACF
:1045B000D737A7FB03687642C8F58038A7FB06CE3D
:1045C00038BFA8F1010807FB08E64FF0000EA6FB74
:1045D000028CE6FB03CEDCF1000CCEF1004E38BFBE
:1045E000AEF1010EA6FB0C584FF000074FF000058E
:1045F000E6FB0E87A1FB08C6A0FB07CE16EB0E0656
:1046000045F10005E1FB076515F1E04E7EBFA4F51D
:1046100080345FEA46066D4116F1800745F10005DA
:104620004FEA17274FEA066647EA0567A6F1DE4616
:10463000B6F1805F4FEA15251FD9384624F0010CEA
:1046400005EBC471BCF1FE6F01EB0C1102D8F0BC9C
:10465000BDE8008124425CBF01F5801E9EEAC47F54
:1046600002D4F0BCBDE80081244238D4F0BCA1F1F2
:10467000C041BDE8004100F007BA4FEAD22242EA49
:1046800043524FEAD323A7FB02864FEAD02040EAE9
:10469000415007FB03661EEA0E0F4FEAD12105FBCE
:1046A000026658BFA6EB0056B6EB00564FEA520E14
:1046B0004EEAC37E18EB0E0E56EB530EBDD518EB2B
:1046C00002085E417F1C55F10005B6E74FF48015E6
:1046D0004FF000074FF000064FF00008ADE7F0BCC8
:1046E0004FF0000001F1C04101F00041BDE8008140
:1046F00011EA0C1F0CEA131500D00CE013EA0C1F92
:1047000000F025804FF00000F0BC81EA030101F0C9
:104710000041BDE80081F0BCBDE8004181EA030131
:1047200000F0B2B9F0BCBDE8004170B500F05EF930
:10473000097EFC3E00F007B881EA03014FF000005B
:1047400001F00041704781EA030100F09DB9F0BC1F
:10475000BDE800414FF0000021497047FFFDFBF923
:10476000F7F5F4F2F0EEEDEBE9E8E6E4E3E1E0DEA4
:10477000DDDBDAD8D7D5D4D3D1D0CFCDCCCBCAC816
:10478000C7C6C5C4C2C1C0BFBEBDBCBBBAB9B8B73D
:10479000B6B5B4B3B2B1B0AFAEADACABAAA9A8A830
:1047A000A7A6A5A4A3A3A2A1A09F9F9E9D9C9C9BFE
:1047B0009A999998979796959594939392919190A9
:1047C0008F8F8E8E8D8C8C8B8B8A8989888887873A
:1047D0008685858484838382828181800000FF07AF
:1047E0000000F87F4FEA41034FEA5353A3F580637B
:1047F000D3F11E03C8BFD3F1210C0CDD4FF00042F2
:1048000042EAC12242EA505232FA03FC8CEAE17CCD
:10481000ACEBE1707047102BC4BF0020704703F56C
:10482000787CBCF1FF3F04D06FF0004282EA2100A7
:10483000704770B500F0DAF8499224800020704784
:10484000F2E710F0004248BF4042B0FA80F310FA9D
:1048500003F10AD0C3F11D0303F580634FEA415011
:1048600002EB035202EBD12170474FF0000070477A
:10487000B0FA80F310FA03F10AD0C3F11D0303F577
:1048800080634FEA41504FEA035202EBD121704757
:104890004FF0000070470000DFF848C170B51CEA17
:1048A000111E1EBF1CEA13159EEA0C0F95EA0C0F91
:1048B00000F06F8081EA030423EA4C134EEAD47EB1
:1048C00021EA4C1141F4801143F48013AE44A1FB62
:1048D000024CA0FB0365AEF17F7E361955EB0C054B
:1048E000A1FB034C4CF10003A0FB021C16EB0C06D1
:1048F000654153F10003094218BF46F0010613F465
:10490000007F0BD14FEA03314FEA0530340341EA0F
:10491000155140EA16506FF003020AE04FEAC32136
:104920004FEAC520F40241EA555140EA56506FF073
:10493000020202EB2E4201EB025585EACE710AD04B
:104940005FEA440C18BF24F0004450F1000041F12C
:10495000000120EAD47040F2FE7C624500D270BDB6
:10496000A84214BF4FF080444FF04044002E08BFCF
:104970000024BEF1806FA8BFA1F1C041BDE8704026
:1049800080F282804FF0000001F1C04101F000414F
:1049900070479EEA0C0F0CEA131518BF95EA0C0F2E
:1049A00006D04FF0000081EA030E0EF0004170BD0A
:1049B00000F01CF88900013E00F007B800F009B8CB
:1049C0004FEA430C5FEA5C5C08D081EA030100F027
:1049D0005BB84FEA410C5FEA5C5CF6D14FF0000037
:1049E000014970470000FF070000F87F0EF1020E3A
:1049F0002EF0030E5EF8046B364205D4012A43EB19
:104A0000030515F5001F12D8012841EB010C1CF518
:104A1000001F0CD80ED14FEAD17C15F5001F0CEB0E
:104A20004C0C0CF1020C08BF4CEBD37C04E04FF0B3
:104A3000080C01E04FEAD37C0CEB4C0526FA05F696
:104A400006F00706B6F1040C06D20EEB860CBDE8A4
:104A500070404CF0010C6047DFE80CF0090B0202DB
:104A60004FF000414FF00000A1F5002170BD194644
:104A70001046012851EB010418BFD4F5001484BF7F
:104A8000002001F0004170BD0808A0F500114FEAB8
:104A90003101704791EA030F10B581F000413FF5F5
:104AA000A9AC83F0004300F0D5B800002DE9F04137
:104AB00001F5801CBCF5001FC0F2A9804FEA115C13
:104AC00021EA0C510CF1FD0C41F480115FEA5C0C01
:104AD0000CF5C07C01D34000494130A4890241EA71
:104AE000905187028E0E0A0CA45D04FB04F602FBB3
:104AF00006F6C6F14046A4FB0662F60D46EA4226DB
:104B000006FB06F4A4FB01235242C3F1404338BF25
:104B10005B1EA6FB02420024E6FB0324D20B42EA02
:104B20004446A6FB0623A1FB02E2A3FB07E4E3FB4A
:104B300061426442C2F1404E38BFAEF1010EA6FBA5
:104B400004234FF00002E6FB0E32A2FB03463400C2
:104B5000E2FB6264A1FB06E6A4FB07E8E4FB6168F4
:104B60007642C8F1405838BFA8F10108A2FB06E41C
:104B7000A3FB08E5E2FB6854A1FB05E6A7FB04E8FC
:104B8000E1FB648618F1200556F10006A809A8F19A
:104B90001B08B10908F03F08B8F10A0F40EA866027
:104BA0001CD901EB0C51BDE8F08100BFFCF5EEE82B
:104BB000E2DDD8D3CFCBC7C3C0BDB9B6B4B1AEACBC
:104BC000A9A7A5A3A19F9D9B9A9896959392908F34
:104BD0008D8C8B898887868584838281A0FB006881
:104BE00000FB01F208EB4208B8EB872807D5341820
:104BF00058EB0104D5D5401C51F10001D1E7341A1E
:104C000078EB0104CDD4401E71F10001C9E75FEAE1
:104C10004C0C5FEA9C5C0DD105D34FF0000001F015
:104C20000041BDE8F081BDE8F04170B5FFF7DEFE60
:104C30006DDBFFBEBDE8F0414FF00000004970475A
:104C40000000F87F10B591EA030F48BF83F00043DE
:104C50003FF5D0AB841A71EB030C07D212198CF01C
:104C6000004C43EB0C03001B61EB0C01DFF8A4E1EB
:104C70004FEA1154A4EB135C1EEA430F18BF9EEADF
:104C8000445F00F0B08023EA6E03524221EA0451EF
:104C9000C3EB6E0338BF5B1EDCF1200E25D322FA76
:104CA0000CFE10EB0E0043FA0CFE41EB0E01CCF1B2
:104CB000200E03FA0EFE10EB0E0051F10001CCF1B4
:104CC000200E29D412FA0EF201EB0451BDE8104077
:104CD00058BF7047401C1CBFB2F1004F70470028FE
:104CE0000CBF491C20F00100704712EB020E43EB91
:104CF000030218BF4FF0010E4EEA4202ACF1200C45
:104D0000DCF11E0E54D943FA0CFE10EB0E0051F1EB
:104D1000FF31CCF11E0ED5D50EF1010E12FA0EFEAA
:104D2000404141EB010101EB445C5FEA5C5C10D95E
:104D300010EBDE7001EB045138BFBEF1004FBDE84F
:104D4000104018BF704700280CBF491C20F001001C
:104D5000704730D24FEAD42C11F5001124F40064CE
:104D60001BD0B1FA81F20B3AA41AA41ED2F120038F
:104D7000914030FA03F31943904001EBCC71002CC1
:104D800001EB0451BDE81040A8BF704701F1C041DC
:104D90004FF0000001F000417047B0FA80F310FAC4
:104DA00003F100D110BDE41A173C4805C90AE4E735
:104DB00001EB045110BD491001EB0451BDE8104056
:104DC0004FEA300002E04FF0000170474A0008BF90
:104DD0000042F8D0B2F5001F28BF704701F0004133
:104DE0004FF0000070479EEA445F07D011EA5E0F63
:104DF000BDE8104004BF002100207047BDE810400E
:104E000070B5FFF7F3FD00BF40DFF63E83F00041D1
:104E1000104670470000E0FF43004FEAD30C4FEA12
:104E20003C0C43401FBF40070CF1605113F0FE4F94
:104E300070471CF0006F03D100200CF00041704758
:104E40000CF0004343EA507010B540EACC0000F08B
:104E500020F800BF000000924FEA0001FFF714BEE7
:104E60004FF000414FF00000A1F50021704700EE27
:104E7000100A00EE901A30EE200A10EE100A704769
:104E800000EE100A00EE901A20EE200A10EE100A32
:104E900070470EF1020E2EF0030E5EF8044B244212
:104EA00004D44FEA4102B2F17F4F11D84FEA4003D8
:104EB000B3F17F4F0CD80ED14FEAD07CB2F17F4FC7
:104EC0000CEB4C0C0CF1020C08BF4CEBD17C04E059
:104ED0004FF0080C01E04FEAD17C0CEB4C0324FAB4
:104EE00003F404F00704B4F1040C06D20EEB840CB6
:104EF000BDE810404CF0010C6047DFE80CF00708FB
:104F000002024FF00040A0F5800010BD08464200AC
:104F100018BFD2F1807288BF00F0004010BD4FF082
:104F20004070E1EE100A7047FF2141EAD050C00501
:104F3000704700EE100A00EE901A30EE600A10EE94
:104F4000100A704700061016000610160000000038
:104F50000000000001020304060708090000000029
:104F600001020304E4CB9640DB0FC93F2DD1D940A9
:104F700080926A403B6B0E41894EB84000000000B1
:104F8000555555555555C53F7D6FEB0312D6D4BFCA
:104F90005544880E55C1C93F3B8F68B52882A4BFD0
:104FA00088B20175E0EF493F09F7FD0DE13D023F91
:104FB0004B2D8A1C273A03C0C88A599CE52A004019
:104FC00059018D1B6C06E6BF82922EB1C5B8B33F66
:104FD0004FBB610567ACDD3F182D4454FB21E93F11
:104FE0009BF681D20B73EF3F182D4454FB21F93F00
:104FF000E2652F227F2B7A3C075C143326A6813C86
:10500000BDCBF07A8807703C075C143326A6913C30
:10501000C4EB98999999C9BF711623FEC671BCBF9C
:105020006D9A74AFF2B0B3BF9AFDDE522DDEADBF04
:105030002F6C6A2C44B4A2BF0D5555555555D53F1C
:10504000FF8300922449C23F6E204CC5CD45B73F37
:10505000513DD0A0660DB13FEB0D76244B7BA93FAF
:1050600011DA22E33AAD903F4C5555555555A53FC1
:105070007751C1166CC156BF9015CB19A001FA3EED
:10508000AD529C804F7E92BEC4B1B4BD9EEE213E17
:10509000D43888BEE9FAA8BD000000000000000076
:1050A00000004054FB21F93F3163621A61B4D03DE6
:1050B0000000601A61B4D03D7370032E8A19A33BBF
:1050C0000000002E8A19A33BC14920259A837B3911
:1050D00000000000000000006E83F9A22915444E74
:1050E000D15727FCC0DD34F5999562DB4190433CF4
:1050F000AB6351FE61C5BBDE3A6E24B7E0D24D42D0
:10510000EA2E49061C92D1091CEB1DFE3EA729B1CF
:10511000F53582E88444BB2E26709CE9417E5FB45D
:1051200039D69139F43953838B5F849C3B28F9BD80
:10513000FF97F81F0F9805DE8B112FEF1F6D0A5A8E
:10514000CF7E366DB709CB27663F464F2DEA5F9E6F
:10515000C7BA27757BF1E5EBF739073DEA92528A2A
:10516000B15FFB6B085D8D1FA6F810111111813F17
:10517000D561C119A0012ABF7DFEB157E31DC73E0D
:10518000EB9C2B8AE6E55ABE7CD5CF5A3AD9E53D51
:10519000B05100080000002048000000C4010008D1
:1051A000F85100084800002068090000E0010008EC
:1051B0000100000010000000000000000024F400C6
:1051C000000030410000304100000041000000417B
:1051D000920A063F920A063F0100F4010200F40120
:1051E0000300F4010400F4010500F4010600F401D9
:0851F0000000000000000000B7
:040000050800018965
:00000001FF
